:020000040800F2
:1000000030260020B1010008EB320008C52A0008A4
:10001000E93200084D060008153D00080000000008
:10002000000000000000000000000000193B000874
:100030004F06000800000000C53900081B3B0008FF
:10004000CB010008CB010008CB010008CB01000860
:10005000CB010008CB010008CB010008CB01000850
:10006000CB010008CB010008CB010008CB01000840
:10007000CB010008CB010008CB010008CB01000830
:10008000CB010008CB010008CB01000800000000F4
:10009000000000000000000000000000CB0100088C
:1000A000CB010008CB010008CB010008CB01000800
:1000B000CB010008CB010008CB010008CB010008F0
:1000C000CB010008CB010008CB010008CB010008E0
:1000D000CB010008CB010008CB01000800000000A4
:1000E000CB010008CB010008CB0100080000000094
:1000F000000000000000000000000000CB0100082C
:1001000000000000CB010008CB010008CB01000873
:1001100000000000000000000000000000000000DF
:10012000CB010008CB010008CB010008CB0100087F
:10013000CB010008000000000000000000000000EB
:10014000000000000000000000000000CB010008DB
:10015000CB010008CB010008CB010008CB0100084F
:10016000CB010008CB0100080000000000000000E7
:10017000000000000000000000000000000000007F
:1001800000000000CB01000800000000000000009B
:10019000CB010008CB010008DFF810D000F0B0F967
:1001A0000048004779400008AFF300803026002067
:1001B0000648804706480047FEE7FEE7FEE7FEE701
:1001C000FEE7FEE7FEE7FEE7FEE7FEE7D13B0008BD
:1001D000990100082DE9F05F0546002092469B46F4
:1001E00088460646814640241BE02846414647464D
:1001F000224600F0E0F853465A46C01A914110D307
:1002000011461846224600F0C7F82D1A67EB010880
:100210004F4622460120002100F0BEF817EB0009EE
:100220004E41201EA4F10104DFDC484631462A4637
:100230004346BDE8F09FD2B201E000F8012B491E11
:10024000FBD270470022F6E710B513460A46044673
:100250001946FFF7F0FF204610BD2DE9FE4F81EA59
:10026000030404F0004421F0004100944FF0000B1F
:1002700023F0004350EA01045ED052EA03045BD04D
:10028000C3F30A54C1F30A552C44A4F2F334019485
:10029000A0FB0254C1F3130141F48011C3F3130313
:1002A00043F4801301FB024400FB034E840A970AC7
:1002B00044EA815447EA8357A4FB076802958D0AF4
:1002C00005FB07854FEA932C04FB0C542705029D80
:1002D0004FEA065847EA1637B5EB08056EEB070CF0
:1002E000870E920E47EA811742EA8312A7FB0201AA
:1002F000B6EB0B0164EB00042B0D43EA0C335E18E4
:1003000044EB1C50DA465146E7FB0201C5F31304E7
:100310004FEA0B3343EA14534FEA0432019C43EA99
:100320000603A4F10C040294009CCDE900B400F093
:1003300098F803B0BDE8F08F00200146F9E70EB54C
:10034000C10F80EAE0700844CA07002140F233433D
:100350008DE80E000A460B4600F083F803B000BD9E
:1003600001F0004330B421F0004150EA010206D010
:100370000A0DA2F56072C1F31301002A02DC30BC41
:1003800000207047440F44EAC104C100E01830BCAB
:1003900000EBC25000F01FB8202A04DB203A00FA1C
:1003A00002F1002070479140C2F1200320FA03F3CC
:1003B000194390407047202A04DB203A21FA02F0CA
:1003C0000021704721FA02F3D040C2F1200291408F
:1003D0000843194670470029A8BF7047401C4900D0
:1003E00008BF20F00100704710B4B0FA80FC00FA9A
:1003F0000CF050EA010404BF10BC704749B1CCF1C5
:10040000200421FA04F411FA0CF118BF0121214350
:100410000843A3EB0C01CB1D4FEA00614FEA10200B
:1004200042BF002010BC704700EBC35010440029AD
:10043000A4BF10BC7047401C490008BF20F0010059
:1004400010BC704710B5141E73F1000408DA401C8C
:1004500041F1000192185B411A4301D120F00100E3
:1004600010BD2DE9F04D92469B4611B1B1FA81F2D3
:1004700002E0B0FA80F220329046FFF78DFF04468A
:100480000F4640EA0A0041EA0B0153465A46084328
:1004900013D0114653EA010019D0C8F1400250466A
:1004A000FFF789FF05460E46504659464246FFF77C
:1004B00073FF084305D0012004E020463946BDE81B
:1004C000F08D0020054346EAE0762C4337430A9836
:1004D0006305E40AA0EB08000022FD0A44EA475441
:1004E0000A3002D500200146E9E7010510196941EB
:1004F000DDE9084500196941BDE8F04DA2E70000BB
:10050000064C074D06E0E06840F0010394E8070060
:1005100098471034AC42F6D3FFF742FEB08D000886
:10052000D08D0008464910B54A6822F440324A602E
:100530004A6843681A434A6001684A6822F4807234
:100540004A6001684A68036942EA03224A60016816
:100550004A6822F040724A6001684A6883681A4318
:100560004A6001688A6822F400628A6001688A68C9
:10057000C3681A438A60816A6FF07062D142016871
:100580008A6822F070628A6001688A680CD0836A87
:100590001A438A6001688A6822F040528A600168C2
:1005A0008A68C36A1A4301E022F040528A600168F7
:1005B0008A6822F002028A6001688A68037E42EA41
:1005C00043028A6090F82010002901684A680FD021
:1005D00042F400624A6001684A6822F460424A605C
:1005E00001684A68174C436A04EB43331A4301E03D
:1005F00022F400624A600168CA6A22F47002CA6288
:100600000168CA6A838B104C04EB03531A43CA6215
:1006100001688A6822F400728A6001688A6890F82A
:10062000303042EA43228A6001688A6822F480629C
:100630008A6001688A68406942EA8020886010BD4B
:100640000023014000E0FFFF0000F0FFFEE77047DD
:1006500072B6FEE7F8B5F74C202501272078002870
:100660003BD102F09DFE00211823F3A2084603F0BF
:1006700053F9102307220521422003F02DF81023FF
:1006800008220521522003F027F810230922052112
:10069000622003F021F80C23E9A22B212A2003F089
:1006A0003BF90C23E6A22B21502003F035F90095ED
:1006B00002231F210A20A26903F0DEF8009502231D
:1006C0001F213020E26903F0D7F8009502231F2193
:1006D0005620226A03F0D0F827706078002610B107
:1006E000012816D0C9E0009502231F210A20A26923
:1006F00003F0C2F8009502231F213020E26903F0C5
:10070000BBF8009502231F215620226A03F0B4F89B
:10071000B3E0207C50B1012826D002283CD0032829
:100720005DD0042873D0052870D0A6E00095022380
:100730001F213020E26903F09FF8009502231F215A
:100740005620226A03F098F8606B142804D2202304
:100750001F21BCA20A201CE028286ED2009502238B
:100760001F210A20A26934E0009502231F213020B6
:10077000E26903F081F8009502231F215620226AC6
:1007800003F07AF8606B1428E6D22023ADA21F2173
:100790001A2003F0C1F81EE0009502231F210A2051
:1007A000A26903F069F8009502231F215620226AEE
:1007B00003F062F8606B142804D220231F21A1A249
:1007C0003020E6E7282857D2009502231F21302049
:1007D000E26903F051F8606B401C60634DE00095E6
:1007E00002231F210A20A26903F046F80095022384
:1007F0001F215620226A03F03FF8606B1428E1D2D3
:1008000020231F218FA24020C3E700E01EE00095B7
:1008100002231F210A20A26903F02EF8009502236B
:100820001F213020E26903F027F8606B142805D2FD
:1008300020231F2183A25620ABE71DE028281BD2CE
:10084000009502231F215620226AC2E70095022349
:100850001F210A20A26903F00FF8009502231F212F
:100860003020E26903F008F8606B1428E6D22023F8
:100870001F2174A266208CE76663012002F050FB02
:10088000012803D1207A08B9207B20B1012002F091
:1008900047FB10B109E0277262E0207A012804D1F9
:1008A000207B10B96078012805D0012002F038FBC8
:1008B000012835D039E0207C3B2106282DD2DFE805
:1008C00000F0030B11191F27A0690A2801D30A3869
:1008D00000E00A30A06120E0A06908B1401EF9E7FD
:1008E0001720F7E7E0690A2801D30A3800E0323020
:1008F000E06112E0E06908B1401EF9E7E1610CE057
:10090000206A0A2801D30A3800E03230206204E06D
:10091000206A08B1401EF9E721622672266322E0B0
:10092000207A012801D1207B20B1012002F0F8FAC1
:1009300068B115E0206B401C20633C2810D960781A
:1009400018B16670266327730AE06770FAE7207AA9
:10095000012805D1207B012802D126632673267247
:100960006078012865D1022002F0DAFA012801D16D
:10097000607A20B1022002F0D3FA10B135E067723C
:1009800033E0607A012830D1607801282CD1207CB6
:10099000062829D2DFE800F0030B121A212FA069E4
:1009A0000E2801D20A3000E00A38A0611CE0A069DC
:1009B000172801D2401CF8E71738F6E7E06931281C
:1009C00001D20A3000E03238E0610DE0E0693B28F6
:1009D00001D2401CF8E73B38F6E7206A312801D203
:1009E0000A3000E0323820626672032002F098FA82
:1009F000012807D008E0206A3B2801D2401CF2E71A
:100A00003B38F0E7A07A20B1032002F089FA10B158
:100A100009E0A77207E0A07A012804D1207C98B1F0
:100A2000401E2074A672042002F07AFA01280DD02C
:100A30000EE01BE0AC010020434C4F434B00000094
:100A40002D000000200000000520EAE7E07A70B1E8
:100A5000042002F065FA002808D1E07A012805D1C7
:100A6000207C052805D0401C2074E672F8BDE77292
:100A7000F8BD2674F9E710B502F092FC1822114671
:100A80002D2002F033FC4FF4FA74204603F0CCFA28
:100A9000182228211E2002F029FC204603F0C4FA67
:100AA000182228213C2002F021FC204603F0BCFA49
:100AB000BDE8104002F074BCF8B55F4C2078002807
:100AC00061D102F06DFC002110230322084602F0E0
:100AD00003FE102304220021184602F0FDFD10231E
:100AE00056A20021232002F017FF002210231146F6
:100AF0002A2002F0F1FD1023012200213A2002F009
:100B0000EBFD1023022200214A2002F0E5FD102314
:100B100005221946002002F0DFFD102306221946A7
:100B2000184602F0D9FD102344A21946232002F0F2
:100B3000F3FE0C250823424A12212A20009502F0D8
:100B40009BFE052340F6BD3212215A20009502F08B
:100B500093FE10233BA21E21002002F0DDFE102395
:100B60003AA22E21002002F0D7FE102339A22E2116
:100B7000482002F0D1FE102337A21E21482002F0A7
:100B8000CBFE01202070606B42F21071884250D978
:100B9000324800F045FC0A21304800F0EFFB2F48B6
:100BA00000F08EFBA0614FF0FF3501230022902161
:100BB0002B48009500F032FF02232A4A9021284852
:100BC000009500F03BFE2748264D008840BA00B251
:100BD00040116880410503D540F4784068800AE000
:100BE000FFF7ADFB9FED201B53EC112BFFF735FBFF
:100BF000FFF7B6FBA860A06940F6E441484340F621
:100C0000FF71B0FBF1F2102604231E21282000966C
:100C100002F032FE009695ED020A04232E21BDEE6D
:100C2000C00A282010EE102A02F055FE0020606352
:100C3000F8BD401CFBE70000E40100203A00000082
:100C40003D3C3401566F6C743A00000054656D7081
:100C50003A000000604300006D7600002000002094
:100C60006800002014000020000000000000C03FC9
:100C70002DE9F843FA4C0127207800BB02F090FBE5
:100C80001023F8A219460A2002F046FE0C23F7A210
:100C90002B212A2002F040FE0C23F5A22B2150200C
:100CA00002F03AFE0C23F3A22B21762002F034FE50
:100CB0001023F1A200210A2002F02EFE2770E8493D
:100CC0000022A831EE4801F001FC0022ED49EC4879
:100CD00001F0DAFBEB4E10250095F2780523002198
:100CE0002E2002F5FA6202F0F6FD009572780223DA
:100CF0000021552002F0EFFD0095327802230021FB
:100D0000642002F0E8FD1023DFA21946552002F00E
:100D100003FED34D61782020A835002611B10129AA
:100D20001FD000E1009080462878A1690223421874
:100D30001F210A2002F0A0FDCDF800806878E1694B
:100D4000022342181F21302002F096FDCDF80080CA
:100D5000A878216A022342181F21562002F08CFD38
:100D6000E1E0217C51B101292FD002294BD0032988
:100D700078D0042974D0052973D0D4E0009080463F
:100D80006878E169022342181F21302002F074FDC7
:100D9000CDF80080A878216A022342181F2156202E
:100DA00002F06AFD606B142804D220231F21B7A231
:100DB0000A2025E0282871D2CDF800802878A16982
:100DC000022342181F210A2043E0009080466878E1
:100DD000E169022342181F21302002F04DFDCDF8B9
:100DE0000080A878216A022342181F21562002F0B1
:100DF00043FD606B1428DDD22023A4A21F211A20FA
:100E000002F08AFD27E0009080462878A16902233D
:100E100042181F210A2002F02FFDCDF80080A8788B
:100E2000216A022342181F21562002F025FD606B23
:100E3000142804D220231F2194A23020E0E7282880
:100E400070D2CDF800806878E169022342181F2132
:100E5000302002F011FD606B401C606363E001E034
:100E60001DE043E0009080462878A16902234218E3
:100E70001F210A2002F000FDCDF80080A878216A29
:100E8000022342181F21562002F0F6FC606B142842
:100E9000D5D220231F217DA24020B1E742E000905F
:100EA00080462878A169022342181F210A2002F0F7
:100EB000E3FCCDF800806878E169022342181F2125
:100EC000302002F0D9FC606B142804D220231F21AB
:100ED0006EA2562094E7282824D2CDF80080A87866
:100EE000216A022342181F215620B2E70090804653
:100EF0002878A169022342181F210A2002F0BCFCB5
:100F0000CDF800806878E169022342181F21302063
:100F100002F0B2FC606B1428DDD220231F215BA2FB
:100F200066206DE76663012001F0FAFF012803D116
:100F3000207A08B9207B20B1012001F0F1FF10B127
:100F400009E0277268E0207A012804D1207B10B9DB
:100F50006078012805D0012001F0E2FF01283BD094
:100F60003FE0207C3B2106282DD2DFE800F0030A79
:100F700011181F2628780A2801D30A3806E00A30FB
:100F800004E0287808B1401E00E0172028701AE01D
:100F900068780A2801D30A3804E0323002E0687821
:100FA00010B1401E68700EE069700CE0A8780A2845
:100FB00001D30A3804E0323002E0A87810B1401EB4
:100FC000A87000E0A97026490022A8312C4801F041
:100FD0006FFB267226631FE0207A012801D1207B57
:100FE00020B1012001F09CFF68B115E0206B401C8E
:100FF00020633C2810D9607818B166702663277387
:101000000AE06770FAE7207A012805D1207B0128E1
:1010100002D12663267326726078012871D10220DE
:1010200001F07EFF012801D1607A20B1022001F099
:1010300077FF10B159E0677257E0607A012854D108
:101040006078012850D1207C062848D2DFE800F0E3
:1010500003222A31394028780E2819D20A301FE09D
:101060007401002054494D453A000000680000001A
:101070006D00000073000000446174653A000000D8
:10108000BC00002018000020377468002000000019
:101090000A3805E02878172801D2401C00E01738EC
:1010A00028701CE06878312801D20A3007E0323815
:1010B00005E068783B2801D2401C00E03B386870AE
:1010C0000DE0A878312801D20A3007E0323805E077
:1010D000A8783B2801D2401C00E03B38A8700022D1
:1010E0001C491D4801F0E4FA6672032001F018FF64
:1010F000012801D1A07A28B1032001F011FF18B115
:101100000AE021E0A77207E0A07A012804D1207C40
:1011100040B1401E2074A672042001F001FF012896
:1011200002D003E00520F5E7E07A78B1042001F071
:10113000F7FE002808D1E07A012805D1207C052897
:1011400006D0401C2074E672BDE8F883E772FBE726
:101150002674F8E71C020020BC00002078B50024AB
:10116000009490F83C20012A19D0012280F83C20FC
:101170000A6807230568092A13D9EE680A3A02EBC0
:10118000420293409E43EE600B788A680A3B03EB71
:1011900043039A400368DD682A43DA6010E00220C6
:1011A00078BD2E6902EB420293409E432E610B787C
:1011B0008A6803EB43039A4003681D692A431A6156
:1011C0004A681F23072A13D205686E6B521E02EB72
:1011D000820293409E436E630A8893B20A79521E3C
:1011E00002EB820293400268556B2B43536327E066
:1011F00005680D2A12D22E6BD21F02EB8202934099
:101200009E432E630B790A88DB1F92B203EB8303A4
:101210009A4003681D6B2A431A6311E0EE6A0D3A87
:1012200002EB820293409E43EE620B790A880D3BEB
:1012300092B203EB83039A400368DD6A2A43DA62C1
:101240001B4B0568194A9D420AD10D68122D07D122
:10125000556825F400055560556845F480055560CE
:1012600005689D421DD1134D0B68AB4201D0112B77
:1012700017D1536823F480035360536843F4000389
:1012800053600968A9420CD10B490C4A0968B1FBAB
:10129000F2F101EB8101490000E0491E00910029B3
:1012A000FBD180F83C40002078BD000000230140C5
:1012B00000200140120000100C00002040420F00EE
:1012C0000068C06C704770B504004FF0000503D093
:1012D000206C002610B107E0012070BD204600F010
:1012E0001DF8666484F83C60206CC00610D4206C45
:1012F00020F4885040F0020020642046FFF712F9E5
:101300006664206C20F0020040F00100206400E0E0
:10131000012584F83C60284670BD000010B586B0F9
:10132000044614216846FEF78DFF11492068884263
:101330001CD110480021026842F4807202600068EB
:1013400000F4807005900B481438026842F00102E6
:101350000260006800F00100059001200090032069
:10136000CDE901016946044800F0CAF806B010BD95
:101370000020014044380240000002402DE9F041C5
:10138000044600680D4681684FF0000749050BD5FB
:101390008068C00508D5206C40F02000206484F8E7
:1013A0003C700120BDE8F08100F07EF906460FE0B8
:1013B000681C0DD025B100F077F9801BA84207D931
:1013C000206C40F00400206484F83C700320E9E7BE
:1013D000206800688007EBD521686FF01200086074
:1013E000206C40F4007020642068816811F0405F38
:1013F00013D1217E89B9C16A11F4700F02D08068BF
:1014000040050AD4206C20F480702064206CC00455
:1014100003D4206C40F0010020640020C2E70000EB
:1014200018B50021009190F83C20012A07D0012234
:1014300080F83C2002689368DB0702D011E00220AC
:1014400018BD936843F001039360204A204B126853
:10145000B2FBF3F202EB420200E0521E0092002ABD
:10146000FBD102689368DB072DD0036C40F2016466
:10147000A34343F48073036453685B0505D5036C91
:1014800023F4005343F480530364036CDB0404D55A
:10149000436C23F00603436400E0416480F83C1091
:1014A0000C496FF02203136049680068C90602D036
:1014B0000949884207D1816811F0405F03D18168F2
:1014C00041F080418160002018BD00000C00002028
:1014D00040420F00002301400020014070B5044647
:1014E00000F0E2F80546601C02D00448007804448D
:1014F00000F0DAF8401BA042FAD370BD00000020D3
:101500002DE9F84F00224FF0010803254FF00F0E90
:101510000B6808FA02F42340A34271D14E68012EF1
:1015200005D0022E03D0112E01D0122E15D18668BF
:10153000570005FA07FC26EA0C06D1F80CC00CFA95
:1015400007FC4CEA060CC0F808C04668A6430C79B4
:10155000C4F30014944034434460C668570005FA4D
:1015600007FC8C6826EA0C06BC403443C4604C6817
:10157000022C01D0122C13D1D40800EB8404A34612
:10158000D4F8209054074FEAD46A0EFA0AF629EAF2
:1015900006090E6906FA0AF646EA0906CBF8206043
:1015A00004680E7924EA0C0406F00306BE402643C4
:1015B00006604C68E40056D52E4C266846F48046FA
:1015C0002660246822F0030604F4804400942A4C28
:1015D0003444A446D4F808489607370F0EFA07F6A5
:1015E000B443264EB04201D1002615E0244EB0424D
:1015F00001D1012610E0234EB04202D102260BE0B9
:1016000031E0214EB04201D1032605E01F4EB04229
:1016100001D1042600E00726BE402643CCF8086826
:101620001B4E34684F689C43FF0300D51C43346055
:10163000174E361D34684F689C43BF0300D51C43CA
:101640003460134E083634684F689C43FF0200D55F
:101650001C4334600E4E0C3634684F689C43BF0206
:1016600000D51C433460521C102AFFF451AFBDE872
:10167000F88F000044380240003001400000024072
:101680000004024000080240000C0240001002402A
:10169000003C01400069084000D0012070470AB1B9
:1016A000816170470904FBE70148806870470000CA
:1016B0000000002070B5040025D094F83D000025FE
:1016C00020B984F83C50204600F0D6FA242084F853
:1016D0003D002068016821F0010101602068016877
:1016E00041F4004101602068016821F4004101607B
:1016F00000F0CCFC4D4A6168914201D84C4900E0B1
:101700004C49884201D2012070BD4B492368B0FB8F
:10171000F1F15E6826F03F060E435E606368934217
:1017200006D94FF4967359434FF47A73B1FBF3F132
:101730002368491C1E6A26F03F063143196261681E
:10174000914210D84900401EB0FBF1F2521CC2F386
:101750000B02042A01D2042022E0B0FBF1F0401C6D
:10176000C0F30B001CE0A268F2B301EBC10303EB72
:101770000116431EB3FBF6F35B1C43F480431B05C9
:1017800049D092B301EBC10202EB0111401EB0FB44
:10179000F1F0401CC0F30B0040F4804040F40040E6
:1017A0002168CA694CF6FF739A431043C861D4E9B3
:1017B000071001432068026822F0C0021143016053
:1017C000D4E9030101432068826848F2FF339A4359
:1017D00011438160D4E9050108432168CA6822F0F9
:1017E000FF021043C86001E00EE016E020680168C7
:1017F00041F0010101602564202084F83D0025634B
:1018000084F83E50002070BD01EB4106431EB3FB3F
:10181000F6F35B1CB3E70120C2E701EB4101401E78
:10182000B0FBF1F0401CC0F30B00B7E7A08601004D
:1018300080841E0000093D0040420F002DE9F84F52
:101840001F4690468A460446DDF82890FFF72CFF95
:10185000054694F83D00202875D1192301226C49D2
:101860002046009501F084FA0028F5D194F83C0058
:10187000012868D0012084F83C0020680168C9076D
:1018800003D1016841F0010101602068016821F481
:1018900000610160222084F83D00102084F83E00A1
:1018A00000262664C4F824806785608D2085594809
:1018B000E0622B464A465146204601F01BF90028BB
:1018C00078D1208D544F68B1012814D002282068A7
:1018D000016816D041F48061016020684169806927
:1018E000009087E02068416981690091016841F4B6
:1018F000007101607EE02068016821F48061016070
:10190000F0E721F4806101602068016841F4006122
:10191000E2E7032848D801280AD0022814D04B4611
:10192000002239462046009501F022FAD8BB27E074
:101930002A464946204601F09AFAA0BB2068006971
:10194000616A08704DE061E04B460022394620464E
:10195000009501F00DFA30BB2068016841F4007178
:10196000016020680069616A0870606A401C6062FA
:10197000218D491E2185618D491E618521682EE0DA
:101980002068016821F48061016020680069616A53
:101990000870606A401C6062208D401E2085608D4A
:1019A000401E6085D0E705E02A464946204601F002
:1019B0005EFA10B10120BDE8F88F20680069616A05
:1019C0000870606A401C6062218D491E2185618D0E
:1019D000491E618521684A69D24352070AD40969C0
:1019E0000170606A401C6062208D401E2085608D01
:1019F000401E6085208D00288BD1202084F83D007A
:101A000084F83E6084F83C600020D4E70220D2E7EE
:101A1000020010000000FFFF040001002DE9F84F54
:101A20001F4690468A460446DDF82890FFF73CFEA4
:101A3000054694F83D0020287FD119230122404912
:101A40002046009501F094F9002876D194F83C00E6
:101A5000012872D0012084F83C0020680168C90781
:101A600003D1016841F0010101602068016821F49F
:101A700000610160212084F83D00102084F83E00C0
:101A800000262664C4F824806785608D20852D4853
:101A9000E0622B464A465146204601F0A1F890B933
:101AA000206841698069009036E02A464946204610
:101AB00001F010FA50B1206C042804D120680168AC
:101AC00041F4007101600120BDE8F88F606A21686F
:101AD00000780861606A401C6062618D491E618502
:101AE000218D491E89B2218522685369DB435B073A
:101AF0000BD451B100781061606A401C6062608D47
:101B0000401E6085208D401E20852A46494620467D
:101B100001F008F90028CED1208D0028C5D154F855
:101B20003D0B016841F400710160202004F81E099A
:101B3000E67766770020C7E7FFE70220C4E70000EA
:101B4000020010000000FFFF2DE9FF4F83B09A460E
:101B5000DDE9119793460446DDF84080FFF7A4FDC8
:101B6000054694F83D0020287FD1192301224049E1
:101B70002046009501F0FCF8002876D194F83C004E
:101B8000012872D0012084F83C0020680168C90750
:101B900003D1016841F0010101602068016821F46E
:101BA00000610160212084F83D00402084F83E005F
:101BB00000262664C4F82480A4F82A90608D20852D
:101BC0002C48E062CDE9007553465A4620460499F8
:101BD00001F054F870B930E02A463946204601F049
:101BE00079F958B1206C042804D12068016841F4C7
:101BF00000710160012007B0BDE8F08F606A2168C4
:101C000000780861606A401C6062218D491E89B2BB
:101C10002185628D521E628522685369DB435B0712
:101C20000BD469B100781061606A401C6062208D3D
:101C3000401E2085608D401E6085208D0028CBD100
:101C40002A463946204601F06DF80028CAD154F8DA
:101C50003D0B016841F400710160202004F81E0969
:101C6000E67766770020C6E7FFE70220C3E70000BB
:101C7000020010000000FFFF10B586B004461421DA
:101C80006846FEF7DFFA14492068884221D11348DC
:101C9000016841F0020101600068694600F002003D
:101CA00005904FF4407000901220019001200290A6
:101CB00003200390042004900948FFF721FC074803
:101CC0001030016841F400110160006800F4001058
:101CD000059006B010BD00000054004030380240AE
:101CE0000004024002488168027811448160704714
:101CF0000000002070B50D4D04464FF47A7128782D
:101D0000B1FBF0F00A490968B1FBF0F000F090FE79
:101D100048B9102C07D200222146501E00F052F87C
:101D200000206C6070BD012070BD0000000000202C
:101D30000C0000202DE9F04116460F46040004D0A7
:101D400094F83900002518B107E00120BDE8F081C2
:101D500084F83850204600F07FFE242084F83900B3
:101D60002068C16821F40051C160204601F03EFFA7
:101D70002068016921F4904101612068416921F0E6
:101D80002A0141612068016921F00F010161206889
:101D90000169394301612068C16821F40061C160B3
:101DA0002068C1683143C1602068C16841F40051B6
:101DB000C160E563202084F8390084F83A000020EF
:101DC000C4E70000F0B40E4B1B680C46C3F30223BB
:101DD000C3F10705042D00D90425191D072901D2D7
:101DE000002300E0DB1E012606FA05F1491E214012
:101DF00099409E40761E16403143F0BC01F08BBFE7
:101E00000CED00E02DE9F843044600684FF00109AD
:101E1000C1074FF0000601D1400729D5DFF8208126
:101E2000C8F86860FFF740FC0746464D05E000BF74
:101E3000FFF73AFCC01B022859D828680001F7D4E4
:101E4000A068217B800140EA0170616808433D4938
:101E500084310860C8F86890FFF726FC074604E064
:101E6000FFF722FCC01B022841D828680001F7D5E3
:101E70002078800752D533484030016841F08051C6
:101E800001600068304D00F080500090286840F4F8
:101E900080702860FFF708FC074604E0FFF704FCA9
:101EA000C01B022823D82868C005F7D5254D7035FA
:101EB000286810F4407020D0218A01F440718142DA
:101EC0001BD02868214920F44070C1F800900E60B2
:101ED00028602868C00710D0FFF7E6FB064641F2ED
:101EE000883707E0FFF7E0FB801BB84202D90320E8
:101EF000BDE8F88328688007F4D521691148C1F34B
:101F000001220830032A12D0016821F4F81101607F
:101F10002868218AC1F30B01084328602078000754
:101F200003D50B49207DC1F8E0010020E0E70268FD
:101F3000084B22F4F81219400A430260E8E7000057
:101F4000000047420038024000700040400E474207
:101F500000104742FFFCFF0F2DE9F0470E46050039
:101F600065D0DFF81481D8F80000F7B200F00F0058
:101F7000B04207D288F80070D8F8000000F00F00D7
:101F8000B04254D128683D4C810712D5400703D593
:101F9000206840F4E05020602878000703D52068CE
:101FA00040F4604020602068A96820F0F0000843F9
:101FB00020602878C0072DD030496868083901288A
:101FC00012D0022813D0032811D0096889070029EC
:101FD0002DDA216821F0030101432160FFF764FB42
:101FE000814641F2883A0EE009688903EFE7096803
:101FF0008901ECE7FFF758FBA0EB0901514502D935
:102000000320BDE8F0872068696800F00C00B0EBA1
:10201000810FEFD1D8F80010404601F00F01B14216
:1020200007D90770006800F00F00B04201D001200E
:10203000E7E72878400705D52068E96820F4E050F4
:10204000084320602878000706D52068296920F415
:10205000604040EAC100206000F038F82168084A7A
:10206000C1F30311515CC840064908600648006886
:10207000FFF740FE0020C4E7003C02400838024061
:10208000484200080C0000200400002004480549D4
:1020900000680968044AC1F38221515CC840704756
:1020A0000C00002008380240584200080448054946
:1020B00000680968044AC1F34231515CC840704766
:1020C0000C0000200838024058420008154810B59E
:1020D000006810F00C02144813D04110042A0FD0ED
:1020E000082A0ED10F4C241F2268236802F03F02F9
:1020F0005B0207D52068C0F38810A0FB010106E051
:10210000084610BD2168C1F38811A1FB000100231E
:10211000FEF760F82168C1F30141491C4900B0FB9A
:10212000F1F010BD083802400024F4002DE9F84F0A
:1021300004006ED02078DFF83C93C007A9F10405B5
:102140004AD009F104000168C1F38101012908D0D6
:102150000068C0F3810002280AD1D9F800004002CB
:1021600006D52868800337D560680028E1D033E0C1
:102170006068B0F5803F10D0B0F5A02F286810D06F
:1021800020F480302860286820F48020286060686F
:10219000A8B1FFF789FA06460DE0286840F48030C0
:1021A000F4E740F480202860F7E700BFFFF77CFAEF
:1021B000801B642873D828688003F7D50CE0FFF7EC
:1021C00073FA064605E000BFFFF76EFA801B64282D
:1021D000F0D828688003F7D42078DFF89C82800745
:1021E0004FF0000A3ED5A348001D016811F00C0F06
:1021F00008D00068C0F3810002280BD1D9F8000094
:10220000400207D42868800716D5E068012800D16D
:1022100012E02BE1E068B8B10120C8F80000FFF738
:1022200043FA064605E000BFFFF73EFA801B02288E
:10223000C0D828688007F7D52868216920F0F80001
:1022400040EAC10028600DE0C8F800A0FFF72CFAB2
:10225000064604E0FFF728FA801B02281FD82868EA
:102260008007F7D42078000722D5824E8348616921
:10227000703671B101210160FFF716FA074604E0DC
:10228000FFF712FAC01B022809D830688007F7D57B
:102290000EE0C0F800A0FFF707FA074605E082E06D
:1022A000FFF702FAC01B02287DD830688007F7D4F8
:1022B0002078400768D5DFF8BCB100270BF13C0B54
:1022C000DBF80000C0000BD4DBF8001041F08051B7
:1022D000CBF80010DBF80000012700F080500090E0
:1022E000674E3068C00510D4306840F480703060AC
:1022F000FFF7DAF9009005E0FFF7D6F90099401AE8
:10230000022850D83068C005F6D55A4EA0686C3601
:1023100001280FD00528306810D020F0010030606F
:10232000306820F004003060A068B8B1FFF7BCF955
:1023300000900FE0306840F00100F4E740F0040046
:102340003060F7E7FFF7B0F90099411A41F28830A1
:10235000814266D830688007F4D50EE0FFF7A4F913
:10236000009007E0FFF7A0F90099411A41F2883088
:10237000814256D830688007F4D42FB1DBF80010C2
:1023800021F08051CBF80010A069C8B33949091D6C
:102390000968C1F3810102294AD00228504607D0BA
:1023A000C8F8600000E03CE0FFF77EF904463BE03F
:1023B0004746C8F86000FFF777F9064605E000BF1A
:1023C000FFF772F9801B02282BD828688001F7D408
:1023D000D4E907010843A16A2A4A490802EB0141EE
:1023E000626A41EA8211084394F82C1040EA0161C4
:1023F000C9F8001001203866FFF756F9044606E0D8
:1024000036E000BFFFF750F9001B022809D8286802
:102410008001F7D52CE000BFFFF746F9001B02282A
:1024200002D90320BDE8F88F28688001F4D41FE0AA
:102430000128F7D0D9F80000E26900F48001914248
:1024400014D1226A00F03F0191420FD147F6C071CA
:10245000626A0140914209D1A26A00F4403191427E
:1024600004D1E16A00F07060884201D00120D9E710
:102470000020D7E70438024000004742800E474260
:10248000007000400000FFFF10B500680B46416877
:102490000D480140080CD870C1F304245C7001F0B1
:1024A0003F049C70C1F34231197052B901F08BFAAC
:1024B000D870587801F087FA5870987801F083FA4C
:1024C0009870002010BD00003FFFFF0010B50B46C4
:1024D0000168896A596001680969C1F30E01996050
:1024E000006801680E480140C1F305401870C1F34F
:1024F00006245C7001F07F049C70402404EA1141C2
:10250000D97052B901F05FFA1870587801F05BFA8F
:102510005870987801F057FA9870002010BD0000AC
:102520007F7F7F0070B5040002D0607F10B106E0AD
:10253000012070BD00202077204600F049F80220DD
:1025400060772168CA20486221685320486220468B
:1025500001F04EFAFF25042618BB206881681B4A4B
:10256000114081602168886862681043D4E90423BF
:102570001A43104388602168E06808612068016997
:10258000228941EA024101612068C16821F080018D
:10259000C16020688068800607D4204600F0FEF8FD
:1025A00018B1206845626677C2E72068016C21F4A3
:1025B000802101642068016CA269114301642068D4
:1025C000456201206077002070BD0000BFFF8FFFD3
:1025D00000680349884202D102490120086070471F
:1025E000002800403C0E47422DE9F0470446007F9A
:1025F0000B4601281FD04FF0010984F81C900220DF
:102600006077DAB19878D97840EA01455878197836
:10261000000240EA413005432168CA20486221682F
:1026200053204862204601F0E3F90026FF274FF0CF
:10263000040860BB1AE00220BDE8F0875878C106A4
:1026400003D500F0EF000A305870D87801F0C4F9D3
:102650000204587801F0C0F942EA0022987801F0AB
:10266000BBF90243187842EA4035D5E70F480540E8
:10267000206845602068C16821F08001C160206841
:10268000806880060AD4204600F088F830B12068BF
:10269000476284F81D8026770120CDE720684762D5
:1026A00084F81D9026770020C6E700003FFFFF005A
:1026B0002DE9F0470446007F0D46012827D04FF052
:1026C000010A84F81CA00220607720680026806838
:1026D0004FEA4060F2B1002800DBEE70A87829785C
:1026E00040EA01476878E978000240EA0140074380
:1026F0002168CA204862216853204862204601F0C0
:1027000077F94FF0FF084FF00409A0BB16E0022054
:10271000BDE8F087002800DBEE70287801F05CF956
:102720000204687801F058F942EA0022A87801F022
:1027300053F90243E87842EA0047D9E716480740D0
:10274000206807602068816821F480218160D5E9D4
:102750000301084321688A68104388602068C168C3
:1027600021F08001C1602068806880060BD420467B
:1027700000F014F838B12168C1F8248084F81D9065
:1027800026770120C4E72168C1F8248084F81DA0C1
:1027900026770020BCE700007F7F7F0070B50446ED
:1027A0000068C16821F0A001C160FEF77DFF054609
:1027B0004FF47A7607E000BFFEF776FF401BB04289
:1027C00001D9032070BD2068C0688006F4D50020C0
:1027D00070BD70B5040005D00025A56294F85100C5
:1027E00010B106E0012070BD84F85050204600F082
:1027F00031F8022084F851002068016821F040017E
:102800000160D4E901010843D4E9031211430843EC
:1028100061690843218B01F400710843E1690843B1
:10282000216A0843A16A084321680860A06904215D
:1028300001EA1040616A0843216848602068C16964
:1028400021F40061C1616565012084F85100002018
:1028500070BD000010B586B0044614216846FDF72F
:10286000F1FC13492068884220D1124800210268F7
:1028700042F480520260006800F4805005900D48D8
:102880001438026842F001020260006800F00100A2
:102890000590A02000900220CDE9010103200390C3
:1028A0000520049069460448FEF72AFE06B010BDD4
:1028B0000030014044380240000002402DE9F84F4A
:1028C000044690F8500000271D4616468946012808
:1028D0000DD04FF0010B84F850B0FEF7E5FE8046B6
:1028E00094F85100BA46012804D002278EE0022055
:1028F000BDE8F88FB9F1000F7DD0002E7BD003200A
:1029000084F85100C4F854A0C4F83090A686E68636
:10291000C4F838A0A4F83CA0A4F83EA0C4F844A091
:10292000C4F840A0A068B0F5004F04D12068016849
:1029300041F48041016020680168490603D40168C0
:1029400041F040010160E068B0F5006F606803D0BD
:1029500030B3012E24D040E008B1012E1CD1206BF1
:1029600021680088C86006E020688168890709D569
:10297000216B0988C160206B801C2063E08E401EA3
:10298000E08609E0FEF790FEA0EB0800A84202D323
:10299000681C01D031E07DB3E08E0028E4D11FE057
:1029A000206B21680078087306E020688168890739
:1029B00009D5216B09780173206B401C2063E08EE0
:1029C000401EE08609E0FEF76FFEA0EB0800A8427B
:1029D00002D3681C01D010E075B1E08E0028E4D16C
:1029E00042462946204601F021F808B120206065C2
:1029F000A06820B107E008E0FFE7032706E02068B1
:102A0000C16880680090606D00B1012784F851B002
:102A100084F850A038466BE74FF0E021042808699D
:102A200003D020F004000861704740F00400FAE78A
:102A300010B5401EB0F1807F01D3012010BD4FF0D2
:102A4000E02460610F21601701F065F90020A061AA
:102A500007202061002010BD10B586B00446142167
:102A60006846FDF7EFFB14492068884221D11348DE
:102A70000021026842F010020260006800F01000BD
:102A800005900E481438026842F0010202600068A6
:102A900000F0010005904FF4C06000900220CDE9E5
:102AA0000101032003900720049069460448FEF7C3
:102AB00027FD06B010BD0000001001404438024060
:102AC00000000240FEE701684A69D24352050FD474
:102AD0006FF480624A61002140F8301F2022427367
:102AE0008173026942F004020261017301207047A0
:102AF000002070472DE9F84F0446C06A1E469346F1
:102B00000D4621680A6842F480620A60082807D0EE
:102B1000012805D010F5803F02D0206B112804D188
:102B20002068016841F4807101604FF001195B4633
:102B3000002249462046009600F01AF94FF400782A
:102B400040B120680068C00501D5C4F8408003206A
:102B5000BDE8F88F2069DFF884A0B0F5804F0FD072
:102B60000620216800EAD51747F0F00008613346D7
:102B70005A460AF10601204600F02EF958BB03E040
:102B8000E8B240F001001CE02168E8B20861334679
:102B90005A465146204600F01FF9E0B920684169C5
:102BA00081690091016841F4807101605B460022F7
:102BB00049462046009600F0DBF80028C1D147F0D6
:102BC000F1002168086133465A465146204600F01C
:102BD00003F90028BCD00120BAE700000200010080
:102BE000F8B50446C06A1E460D461746082807D0A9
:102BF000012805D010F5803F02D0206B122804D1A7
:102C00002068016841F480710160134600224FF092
:102C100001112046009600F0ABF840B12068006832
:102C2000C00502D54FF4007020640320F8BD206970
:102C3000B0F5804F0ED00620216800EAD51040F094
:102C4000F000086133463A460B49204600F0C4F8CC
:102C500078B902E005F0FE0000E0E8B22168086102
:102C6000054933463A46891F204600F0B5F800284A
:102C7000DCD00120F8BD0000080001002DE9F84378
:102C8000044600680D46DDE9089701689846164637
:102C900041F4807101604B4600224FF00111204643
:102CA000009700F065F848B120680068C00502D5BB
:102CB0004FF4007020640320BDE8F883216805F01C
:102CC000FE0008613B464A461549204600F084F85C
:102CD00088B920684169806900903A464946204693
:102CE00000F0F8F848B1206C042804D1206801688D
:102CF00041F4007101600120DEE7F5B2B8F1010F87
:102D000009D02168300A08613A464946204600F059
:102D1000E1F80028E7D1206805610020CCE7000039
:102D20000200010070B516460D4604460DE020462F
:102D3000FFF7C9FE08B1012070BD681C05D0FEF781
:102D4000B3FC801BA84207D835B120684069C04356
:102D50004007ECD4002070BD002044F8300F202143
:102D60006173A073216941F0200121612073E2E7C2
:102D70002DE9F0471E4690460D460446C1F307472D
:102D8000DDF8209008E0701C06D0FEF78DFCA0EB6B
:102D90000900B0420FD876B12068012F18D08069A1
:102DA00025EA00000004000C14D000214145EAD0BF
:102DB0000020BDE8F087002044F8300F2021617327
:102DC000A073216941F02001216120730120F0E707
:102DD0004069E5E70121E9E72DE9F0479A46914688
:102DE0000E46044600254FF02008C1F3074725E0B2
:102DF00020684069C043400514D42068016841F44C
:102E00000071016021686FF480604861256384F877
:102E10003D8084F83E50206C40F00400206484F82B
:102E20003C501FE0B9F1FF3F08D0FEF73DFCA0EB9E
:102E30000A0149450CD8B9F1000F09D02068012FCB
:102E400013D0806926EA00000004000C0BD0CFE705
:102E500044F8305F84F80D80A573206940F02000AD
:102E6000206125730120BDE8F0874069EAE72DE97C
:102E7000F041002590460E460446202717E04069A1
:102E8000C043C0060CD454F8301B6FF010004861EA
:102E900044F810596777A577206A2062257717E0F4
:102EA000FEF702FCA0EB0800B04208D83EB1206853
:102EB0004169C9434906E2D40020BDE8F08144F8E5
:102EC000305F6773A573206940F02000206125738F
:102ED0000120F2E770B516460D4604460DE0204687
:102EE000FFF7F1FD08B1012070BD681C05D0FEF7A9
:102EF000DBFB801BA84207D835B120684069C0437E
:102F00000006ECD4002070BD002044F8300F2021D2
:102F10006173A073216941F0200121612073E2E710
:102F200070B5012807D01F4C022812D0032820D0EA
:102F300004282DD127E01C4D4FF4807421462846EB
:102F4000FEF7A8FB20BB012001F06EF821462846C1
:102F50000BE04FF4806529462046FEF79BFBB8B98D
:102F6000012001F061F8294618E0FEF793FBB8B1A3
:102F70000EE010212046FEF78DFB48B9012001F03C
:102F800053F810210AE020212046FEF783FB08B108
:102F9000002070BD012001F047F820212046E4E721
:102FA000012070BD000402400000024030B4144B08
:102FB000012809D0134C02280DD0032814D004286E
:102FC0001BD1B9B1012216E009B1012200E00022B3
:102FD0000121184605E009B1012200E0002202218A
:102FE000204630BCFEF75BBB09B1012200E00022A5
:102FF0000121F5E700220821EBE730BC7047000013
:1030000000040240000802401FB500208DF80C00AB
:10301000012103A864228DE807000B460A4690218F
:103020000148FEF791FD1FBD680000207FB5002418
:1030300015480094019402941249039401604FF4DE
:103040008031C0E9011401250461057680F8204033
:103050000E49C0E90A14C561C46080F8304045617A
:10306000FEF731F908B1FDF7F3FACDE900456946FD
:1030700005480294FEF772F8002801D0FDF7E8FA3F
:103080007FBD000000200140200000200100000F53
:103090002DE9F04387B014216846FDF7D3F83B488B
:1030A0000024016841F004010160016801F004019D
:1030B0000591016841F080010160016801F0800123
:1030C0000591016841F001010160016801F0010111
:1030D0000591016841F0020101600068DFF8B080ED
:1030E00000F002000590002283214046FEF7D7FA47
:1030F000DFF8A090002212214846FEF7D0FA264FB2
:10310000002249213846FEF7CAFA0320012502268B
:1031100003948DE8610069464046FEF7F1F9CDE978
:103120000065CDE9026469464846FEF7E9F91020DA
:10313000CDE90005CDE9025669464846FEF7E0F9BB
:10314000492003948DE8610069463846FEF7D8F9B6
:103150004FF48660CDE90004694638460294FEF7D4
:10316000CFF98020CDE90005CDE9025469464046FB
:10317000FEF7C6F92802CDE90004694648460294E4
:10318000FEF7BEF907B0BDE8F0830000303802401A
:103190000008024000000240000402400D4810B543
:1031A0000B4901600C49416000214FF4804281606D
:1031B000C0E9031241618161C1610162FEF77AFADF
:1031C000002803D0BDE81040FDF742BA10BD000052
:1031D0000054004068000020A086010010B586B0B1
:1031E00014216846FDF72EF81E4800241C4905945A
:1031F000C0E900147F218160FF21C0E9031444610C
:103200008461FFF78FF908B1FDF722FA14208DF8D9
:10321000000030208DF801008DF802400394012257
:10322000694610480494FFF743FA08B1FDF710FA15
:1032300003208DF8140006208DF8150007208DF866
:10324000160023208DF81700012205A90548FFF775
:10325000CBF9002801D0FDF7FBF906B010BD000046
:1032600000280040BC0000200F4810B50D49016047
:103270004FF48271416000218160C1604FF400729F
:103280000161C0E90512C1610162416281620A21E6
:10329000C162FFF79EFA002803D0BDE81040FDF799
:1032A000D7B910BD00300140DC0000200D4810B53A
:1032B0000B4901604FF4E1314160002181600C2233
:1032C000C160C0E9041281610A46C161FEF732FDA6
:1032D000002803D0BDE81040FDF7BAB910BD0000CA
:1032E0000010014034010020FEE7FEE72DE9F84F11
:1032F0000F46804616460025144612FB06F949E0A3
:1033000008EB0500A7EB040A00900AF0FF01C0B229
:1033100000F0E2F80AF0FF01A8EB050A0AF0FF004E
:1033200000F0DAF807EB040B0BF0FF010AF0FF00E6
:1033300000F0D2F800980BF0FF01C0B200F0CCF81A
:103340007819C1B208EB040B00900BF0FF0000F0FD
:10335000C3F8A7EB050A0AF0FF010BF0FF0000F02D
:10336000BBF80AF0FF01A8EB040A0AF0FF0000F026
:10337000B3F80098C1B20AF0FF0000F0ADF86D1C80
:1033800005FB05F004FB040006FB1600002801DD28
:10339000641E6D1E600060434845B1DABDE8F88FD9
:1033A00030B40021084B0A465FF0000003EB8014A4
:1033B000401CC0B262548028F8D3491CC9B2082905
:1033C000F2D330BC00F0B6B83002002010B5414C4A
:1033D000002240212046FEF762F9C820FEF77EF861
:1033E000012240212046FEF75AF90021AE2000F0CC
:1033F000B3FA0021084600F0AFFA0021102000F0D7
:10340000ABFA0021402000F0A7FA0021812000F053
:10341000A3FA0021CF2000F09FFA0021A12000F0A4
:103420009BFA0021C82000F097FA0021A62000F0A6
:1034300093FA0021A82000F08FFA00213F2000F02D
:103440008BFA0021D32000F087FA0021084600F013
:1034500083FA0021D52000F07FFA0021802000F0BF
:103460007BFA0021D92000F077FA0021F12000F04A
:1034700073FA0021DA2000F06FFA0021122000F028
:103480006BFA0021DB2000F067FA0021402000F0F9
:1034900063FA0021202000F05FFA0021022000F0F2
:1034A0005BFA00218D2000F057FA0021142000F073
:1034B00053FA0021A42000F04FFA0021A62000F0CA
:1034C0004BFA0021AF2000F047FABDE81040FFF7AB
:1034D00067BF00000004024070B5CC0801F007028D
:1034E00001219140074A02EB80152A5D0A432A55C3
:1034F000214600F045F8285DBDE87040012100F04C
:103500002BBA000030020020CA0801F00703012195
:103510009940034B03EB8010835C0B43835470474B
:10352000300200200246012000E05043491EC9B28B
:10353000FBD2704770B5114E002400BF04F1B000FB
:10354000C0B2002100F008FA0021084600F004FA99
:103550000021102000F000FA5FF0000506EB851056
:103560000121005D00F0F8F96D1CEDB2802DF5D35E
:10357000641CE4B2082CE1D370BD000030020020CE
:1035800010B50446B031C8B2002100F0E5F91020B2
:1035900040EA1410002100F0DFF904F00F00BDE84C
:1035A0001040002100F0D8B92DE9FF4F81B01C4632
:1035B000DDF804B00D468946580700D0012000EB25
:1035C000D400610810FB01FA203A90B20026009066
:1035D00040E00C2C0AD0102C0DD0182C13D0202C2D
:1035E0006DD13849009801EB801008E00098364909
:1035F00000EB40000BE03549009801EB00104FF064
:103600000008875D06E00098314900EBC00001EB3F
:103610008000F4E738060198294602D5FFF774FFC9
:1036200001E000F0C1F978066D1C070EEDB2A5EBC4
:103630000900A04205D101984D46401CC0B201903E
:1036400006E008F101001FFA80F8B8F1080FE1D395
:10365000761CB6B25645BCD305F0070004F007014E
:10366000084408284FEA447007D000B1012000EB5D
:10367000D400401C804600271FE000B1012000EB71
:10368000D400F7E7002607EBD50911E00BEB060A9B
:1036900009F0FF010AF0FF00FFF772FF0D4901EB8F
:1036A0008A1111F80900012100F056F9761CB6B212
:1036B000B6EB540FEAD37F1CBFB24745E2D305B047
:1036C000BDE8F08F205A000860420008D446000888
:1036D000C44C0008300200202DE9FF4F85B0814620
:1036E0000020CDE90190CDE903191D4688468B469F
:1036F0004FEAD30A70E0079810FB05F1029800EB3F
:10370000D10080B200900298401C80B20024029048
:1037100060E0402D29D00CDC0C2D19D0102D17D0D5
:10372000182D1AD0202D6FD14B49009801EBC010F5
:1037300018E06E2D1ED0782D21D0822D01D08C2D39
:1037400062D1009800EBC001444800EBC10009E0E1
:103750004349009801EB401004E00098414900EB18
:10376000C00010E0065D002710E03F49009801EB23
:103770004020F7E700983D4900EBC00003E00098C7
:103780003B4900EBC00001EBC000EBE7F00741460E
:10379000484602D0FFF7B8FE01E000F005F97F1CB3
:1037A000760808F10100BFB200F0FF08082FEDD342
:1037B00009F10100019900F0FF09A9EB0100A842FD
:1037C00004D10BF1080089461FFA80FB641C0BF042
:1037D000FF08A4B2AC429CD3BAF101001FFA80FAF0
:1037E00089D2039805F0070100F007000844082873
:1037F0004FEA457009D000B1012000EBD5077F1CCE
:103800000026DFF8709021E022E000B1012000EBFB
:10381000D507F5E70398002406EBD00812E000BFB7
:10382000049808F0FF012044C0B2FFF7A9FE0198F8
:10383000011909EB811111F80800012100F08CF841
:10384000641CA4B2AC42EBD3761CB6B2BE42E1D348
:1038500009B0BDE8F08F0000E8760008908C000801
:10386000E071000860740008E8780008E888000843
:10387000708B0008300200202DE9F0471D46DDF86E
:10388000208091468A46074600244FEA580618E0F1
:10389000281B401EC1B20A20FFF744FEB9FBF0F01E
:1038A0000A21B0FBF1F201FB120070B13030C2B25C
:1038B00006FB0470C0B243465146FFF775FE641C18
:1038C000E4B2AC42E4D3BDE8F08706FB0470C0B2BA
:1038D00043463022F0E72DE9F8431E46089D07468F
:1038E0001446884610042B4606D52D223846FFF78D
:1038F0005BFE604202B204E020223846FFF754FE2D
:1039000022B2761E07EB5500F3B2C0B241460095D5
:10391000FFF7B2FFBDE8F8832DE9F0411E461546DA
:1039200088460446C3F180070FE0334641462046EF
:10393000FFF73AFE04EB5600C4B2A74204DA08F1DE
:103940000200002400F0FF086D1C2A78A2F120007C
:103950005E28EAD9BDE8F08173B5104D6C4609B117
:10396000012200E0002280212846FDF798FE0C4E3F
:10397000002210213046FDF792FEC8230122214685
:103980000848FEF79BFF012210213046FDF787FE15
:10399000012280212846FDF782FE7CBD00080240FE
:1039A00000000240DC000020CA0801F007030121EA
:1039B0009940034B03EB8010835C8B438354704727
:1039C000300200207047010901EB810100F00F0077
:1039D00000EB4100C0B27047002102E00A38C0B2DB
:1039E000491C0A28FAD2090740EA11607047000012
:1039F00070B504460068C168490614D44FF0FF3121
:103A0000C160FDF751FE05464FF47A7607E000BF2E
:103A1000FDF74AFE401BB04201D9032070BD20686B
:103A2000C0684006F4D5002070BD000038B50446DB
:103A30001248134B0068B0FBF3F04FF47A7358430D
:103A400000906068B0F5827F0DD10B460092002295
:103A50008021204600F016F870B1606D40F0200023
:103A60006065032038BD009830B1401E009020688A
:103A70008068C0430006F6D5002038BD0C00002049
:103A800000366E012DE9F0411D4617460E460446EC
:103A9000DDF8188008E0681C06D0FDF705FEA0EBF5
:103AA0000800A8420BD255B12068806836EA0000B1
:103AB00030D00020B842EED10020BDE8F08120686F
:103AC000416821F0E00141606068B0F5827F0BD170
:103AD000A068B0F5004F02D0B0F5806F04D1206827
:103AE000016821F040010160A06AB0F5005F09D1D2
:103AF0002068016821F4005101602068016841F4E8
:103B000000510160012084F85100002084F8500029
:103B10000320D2E70120CDE77047FEF7E3B80000AD
:103B200030B599B030216846FCF78CFB14210CA805
:103B3000FCF788FB182111A8FCF784FB224800251C
:103B4000016841F080510160006800F080501790DA
:103B50001E48016841F4404101600068022400F4FD
:103B60004040179005200090000401900120029031
:103B70008005CDE9064008AA0420642182E81300EC
:103B80000B906846FEF7D2FA08B172B6FEE70CA9B0
:103B90000F2081E831004FF48050CDE90F0503215B
:103BA0000CA8FEF7D9F908B172B6FEE74FF48070A1
:103BB0001590119411A8FEF725F9002801D072B6CE
:103BC000FEE719B030BD00004038024000700040F0
:103BD0000548016841F47001016003494FF000603D
:103BE000803908607047000088ED00E02DE9F04161
:103BF000044600680169E26821F440511143016103
:103C00002169A068E269084361691143084321689A
:103C1000CA6849F20C639A430243CA60206841694A
:103C2000A26921F4407111434161E06919276425BB
:103C30003226B0F5004F354A354920684FF000086C
:103C400006D0884201D0904236D1FEF72FFA35E0F7
:103C5000884201D0904202D1FEF728FA01E0FEF737
:103C600015FA61684A18A0FB070148EB0803FCF746
:103C7000B1FA0146B0FBF5F00201B1FBF5F06FF0CF
:103C80001803584301EB800006EBC000B0FBF5F0D1
:103C900000F0F80002EB4002B1FBF5F0584301EBF5
:103CA000800006EBC000B0FBF5F000F007002168D3
:103CB00010448860BDE8F081FEF7E8F961688B0F79
:103CC0008A00A0FB0701FCF785FA0146B0FBF5F07E
:103CD0006FF01802504301EB800006EB0010B0FBC0
:103CE000F5F000F0F002B1FBF5F002EB0012B1FBD1
:103CF000F5F06FF01803584301EB800006EB00105D
:103D0000B0FBF5F000F00F00D1E700000014014017
:103D100000100140FEE70907090E002804DB00F14E
:103D2000E02080F80014704700F00F0000F1E02060
:103D300080F8141D704702E008C8121F08C1002A4D
:103D4000FAD170477047002001E001C1121F002A1C
:103D5000FBD170472DE9F0474FF4FA742146FF205C
:103D600000F030F9322000F05FF92146FF2000F02A
:103D700029F9322000F058F94FF4C475214628463D
:103D800000F020F9322000F04FF92146284600F0DB
:103D900019F9322000F048F94FF4DC76214630461C
:103DA00000F010F9322000F03FF92146304600F0D3
:103DB00009F9322000F038F92146284600F002F9CE
:103DC000204600F031F940F25D172146384600F0F8
:103DD000F9F8322000F028F92146384600F0F2F8D0
:103DE000322000F021F940F249182146404600F007
:103DF000E9F8322000F018F92146404600F0E2F8D8
:103E0000322000F011F940F225192146484600F011
:103E1000D9F8322000F008F92146484600F0D2F8DF
:103E2000322000F001F940F2051A2146504600F018
:103E3000C9F8204600F0F8F82146284600F0C2F8FC
:103E4000322000F0F1F82146284600F0BBF832207D
:103E500000F0EAF82146384600F0B4F8322000F0CD
:103E6000E3F82146384600F0ADF8322000F0DCF8E7
:103E70002146404600F0A6F8322000F0D5F8214651
:103E8000404600F09FF8322000F0CEF82146484628
:103E900000F098F8204600F0C7F82146284600F0C8
:103EA00091F8322000F0C0F82146284600F08AF848
:103EB000322000F0B9F82146384600F083F832206D
:103EC00000F0B2F82146384600F07CF8322000F0CD
:103ED000ABF82146404600F075F8322000F0A4F817
:103EE0002146404600F06EF8322000F09DF8214651
:103EF000484600F067F8204600F096F82146FF207B
:103F000000F060F8322000F08FF82146FF2000F02A
:103F100059F8322000F088F82146284600F052F87F
:103F2000322000F081F82146284600F04BF832207C
:103F300000F07AF82146304600F044F8322000F0D4
:103F400073F82146304600F03DF8322000F06CF85E
:103F50002146284600F036F8204600F065F8214654
:103F6000384600F02FF8322000F05EF8214638463F
:103F700000F028F8322000F057F82146404600F0C3
:103F800021F8322000F050F82146404600F01AF89F
:103F9000322000F049F82146484600F013F832205C
:103FA00000F042F82146484600F00CF8322000F0BC
:103FB0003BF82146504600F005F82046BDE8F047A2
:103FC00000F032B82DE9F041104A4000B2FBF0F5A4
:103FD0004FF47A7041436800B1FBF0F600240C4FB7
:103FE00010E0012202213846FDF759FB284600F077
:103FF00029F8002202213846FDF751FB284600F03F
:1040000021F8641CB442ECD3BDE8F08140420F00BB
:104010000000024010B504460420FEF7FDFC0148F4
:10402000046010BD1000002070B5054600244FF458
:104030007A7603E0304600F005F8641CAC42F9D310
:1040400070BD000070B54FF0E02400226569094999
:10405000A36909684843A1699942FCD002D2A3EB45
:10406000010302E0A5EB010633441A440B468242E9
:10407000F1D370BD10000020FFF752FDFFF708F8E4
:10408000FEF7D4FFFFF7F0F8FFF710F9FFF7A6F8F7
:10409000FFF784F8FFF79AF9FEF7B6FF6420FFF701
:1040A000B9FF4FF0000B5C465D46DA465E46FCF712
:1040B000E2FC614FDFF88491DFF8848104E0012D98
:1040C00005D0022D08D105E0FCF7D2FD04E0FCF795
:1040D000C1FA01E0FCF7F0FC787880BB98F80100A9
:1040E00068BB5848407850BB0320FEF719FF0128F1
:1040F00002D11AF0FF0F04D00320FEF711FF30B1F8
:1041000017E00121504661F30700824611E00AF0F2
:10411000FF0001280DD19DB16D1EEDB2494987F810
:1041200000B088F800B081F800B051466BF3070189
:104130008A460420FEF7F4FE012803D005E01FE0C4
:104140000225EBE7CAF3072020B10420FEF7E8FEC2
:1041500010B115E001210FE0CAF3072001280FD1AB
:10416000022D22D06D1CEDB2364887F800B088F8D9
:1041700000B0594680F800B0504661F30F208246E7
:1041800099F80030D8F8182048464146934215D196
:104190004378D1F81CC0634510D199F80200D8F8D3
:1041A000201088420AD132B901E00025DCE7BCF1D9
:1041B000000F00D111B1012060F30704C4F3072000
:1041C00070B9E0B201280BD1FFF7C4FD761C3604AC
:1041D000360CF9D000266BF30704012060F30F249E
:1041E0000120FEF79DFE08B1012100E00021012021
:1041F000FEF7DCFE0220FEF793FE08B1012100E08D
:1042000000210220FEF7D2FE0320FEF789FE08B14E
:10421000012100E000210320FEF7C8FE0420FEF784
:104220007FFE08B1012100E000210420FEF7BEFE60
:10423000002D3FF443AF42E7740100201C02002030
:10424000AC010020E401002000000000000000009C
:10425000010203040607080900000000010203042C
:10426000000000000000000000000000000000004E
:104270003F4000000000000000003000400030001F
:104280004000000009000BC03D000BC03D000900CC
:1042900018C024407FE0224031800000180024C074
:1042A0001B000D803240018003801C4027401C8091
:1042B0000740004010006000000000000000000007
:1042C0000000000000001F8020404020000040202F
:1042D00020401F8000000000090006001F8006002B
:1042E00009000000040004003F80040004000000F6
:1042F0000010006000000000000000000400040046
:104300000400040004000000000000400000000061
:1043100000000000002001C006003800400000003E
:104320001F802040204020401F80000000001040DF
:104330003FC000400000000018C02140224024403F
:104340001840000010802040244024401B800000C2
:1043500002000D0011003FC0014000003C802440DD
:1043600024402440238000001F8024402440344007
:10437000038000003000200027C03800200000002B
:104380001B802440244024401B8000001C0022C0CD
:10439000224022401F800000000000000840000072
:1043A00000000000000000000460000000000000A9
:1043B000000004000A0011002080404009000900AC
:1043C00009000900090000000000404020801100A1
:1043D0000A000400180020002340240018000000F8
:1043E0001F802040274029401F400000004007C098
:1043F00039000F0001C0004020403FC0244024404D
:104400001B8000001F8020402040204030800000A2
:1044100020403FC0204020401F80000020403FC07F
:1044200024402E4030C0000020403FC024402E00D9
:10443000300000000F001080204022403380020036
:1044400020403FC0040004003FC0204020402040E6
:104450003FC02040204000000060202020203FC0BE
:104460002000200020403FC024400B0030C02040EE
:1044700020403FC020400040004000C03FC03C0002
:1044800003C03C003FC0000020403FC00C40230060
:104490003FC020001F802040204020401F8000009F
:1044A00020403FC024402400180000001F8021400D
:1044B000214020E01FA0000020403FC024402600F3
:1044C00019C0004018C02440244022403180000020
:1044D000300020403FC020403000000020003F80DE
:1044E000004000403F80200020003E0001C0070047
:1044F00038002000380007C03C0007C0380000002A
:10450000204039C0060039C020400000200038405B
:1045100007C0384020000000304021C0264038400D
:1045200020C00000000000007FE04020402000008C
:10453000000070000C0003800040000000004020DC
:1045400040207FE00000000000002000400020002C
:1045500000000000001000100010001000100010FB
:104560000000000040000000000000000000028089
:104570000540054003C0004020003FC00440044007
:104580000380000000000380044004400640000057
:1045900000000380044024403FC00040000003802E
:1045A0000540054003400000000004401FC02440B7
:1045B00024402000000002E0055005500650042071
:1045C00020403FC00440040003C0004000000440FD
:1045D00027C000400000000000100010041027E079
:1045E0000000000020403FC00140070004C004401C
:1045F000204020403FC000400040000007C00400B1
:1046000007C0040003C00000044007C004400400C9
:1046100003C0004000000380044004400380000009
:10462000041007F0045004400380000000000380E1
:104630000440045007F00010044007C0024004008A
:1046400004000000000006400540054004C00000D2
:10465000000004001F8004400040000004000780A8
:104660000040044007C000400400070004C001806F
:1046700006000400060001C0070001C0060000009B
:10468000044006C0010006C00440000004100710EA
:1046900004E00180060004000000044005C006405C
:1046A000044000000000000004007BE04020000007
:1046B000000000000000FFF00000000000004020AB
:1046C0007BE004000000000040008000400020006B
:1046D000200040000000000000000000000000007A
:1046E000000000000000000000001FCC000C0000D3
:1046F00000000000000008003000600008003000EA
:1047000060000000022003FC1E20022003FC1E208B
:104710000220000000000E1811043FFF10840C78E6
:10472000000000000F0010840F3800C007781884C4
:104730000078000000780F8410C411240E9800E463
:1047400000840008080068007000000000000000FD
:104750000000000000000000000007E0181820041E
:1047600040020000000040022004181807E000008A
:10477000000000000240024001800FF00180024072
:10478000024000000080008000800FF80080008060
:10479000008000000001000D000E0000000000007D
:1047A0000000000000000080008000800080008089
:1047B000008000800000000C000C000000000000E1
:1047C00000000000000000060018006001800600E4
:1047D00018002000000007F0080810041004080862
:1047E00007F000000000080408041FFC0004000497
:1047F0000000000000000E0C10141024104411845E
:104800000E0C000000000C18100411041104128892
:104810000C700000000000E00320042408241FFCAA
:104820000024000000001F98108411041104108857
:1048300010700000000007F00888110411041888A7
:104840000070000000001C00100010FC13001C0091
:104850001000000000000E38114410841084114430
:104860000E38000000000700088C1044104408882F
:1048700007F00000000000000000030C030C000023
:104880000000000000000000000101060000000020
:104890000000000000000080014002200410080811
:1048A0001004000002200220022002200220022028
:1048B000022000000000100408080410022001403B
:1048C0000080000000000E001200100C106C108020
:1048D0000F00000003E00C1813E4142417C4082888
:1048E00007D000000004003C03C41C40074000E463
:1048F000001C000410041FFC1104110411040E8894
:104900000070000003E00C181004100410041008DC
:104910001C10000010041FFC1004100410040808F0
:1049200007F0000010041FFC1104110417C4100448
:104930000818000010041FFC1104110017C010001B
:104940000800000003E00C181004100410441C7848
:104950000040000010041FFC1084008000801084C0
:104960001FFC10040000100410041FFC10041004AD
:104970000000000000030001100110011FFE1000E4
:104980001000000010041FFC110403801464181CA4
:104990001004000010041FFC1004000400040004B4
:1049A000000C000010041FFC1F0000FC1F001FFC77
:1049B0001004000010041FFC0C04030000E0101899
:1049C0001FFC100007F00808100410041004080869
:1049D00007F0000010041FFC10841080108010806D
:1049E0000F00000007F0081810241024101C080AFB
:1049F00007F2000010041FFC1104110011C0113057
:104A00000E0C000400000E1C1104108410841044CD
:104A10001C3800001800100010041FFC10041000C7
:104A20001800000010001FF8100400040004100417
:104A30001FF8100010001E0011E0001C0070138011
:104A40001C0010001FC0103C00E01F0000E0103CE4
:104A50001FC000001004180C163401C001C0163429
:104A6000180C100410001C00130400FC13041C009C
:104A7000100000000804101C1064108413041C04AF
:104A8000101800000000000000007FFE40024002FD
:104A900040020000000030000C0003800060001C99
:104AA0000003000000004002400240027FFE0000C0
:104AB0000000000000000000200040004000400016
:104AC00020000000000100010001000100010001C0
:104AD0000001000100004000400020000000000034
:104AE000000000000000009801240144014401443A
:104AF00000FC000410001FFC008801040104008871
:104B0000007000000000007000880104010401042E
:104B100000880000000000700088010401041108F2
:104B20001FFC0004000000F801440144014401445A
:104B300000C800000000010401040FFC110411046E
:104B400011001800000000D601290129012901C91E
:104B50000106000010041FFC008401000100010494
:104B600000FC000400000104190419FC0004000406
:104B7000000000000000000300010101190119FEFE
:104B80000000000010041FFC0024004001B4010CD0
:104B9000010400000000100410041FFC00040004C5
:104BA00000000000010401FC0104010001FC0104FB
:104BB000010000FC010401FC00840100010001046B
:104BC00000FC0004000000F80104010401040104D9
:104BD00000F80000010101FF0085010401040088C4
:104BE000007000000000007000880104010401054D
:104BF00001FF00010104010401FC00840104010023
:104C000001800000000000CC0124012401240124C3
:104C10000198000000000100010007F801040104F0
:104C200000000000010001F8000400040004010875
:104C300001FC0004010001800170000C0010016003
:104C40000180010001F0010C003001C00030010CB6
:104C500001F0010000000104018C00740170018C5E
:104C600001040000010101810171000E00180160C2
:104C70000180010000000184010C01340144018421
:104C8000010C0000000000000000000001003EFCDC
:104C9000400240020000000000000000FFFF000092
:104CA000000000000000400240023EFC0100000045
:104CB0000000000000006000800080004000400014
:104CC00020002000000000000000000000000000A4
:104CD00000000000000000000000000000000000D4
:104CE00000000000000000000000000000000000C4
:104CF000000000000000000F80380FFE380F8038E1
:104D000000000000000000000000000000000000A3
:104D100000000100000600000C0000380000310017
:104D2000000600000C000038000030000000000009
:104D30000000000061800067F807F98000618000D2
:104D400061800061800061800067F807F980006180
:104D50008000000000000000000001C0E003E0F05F
:104D60000630080418081FFFFE040E080787F0032A
:104D700081E000000000000001F000060C000404C7
:104D800008060C7001F9C0000E00003BE000EC18B2
:104D9000070808040C180003E00000000001E00010
:104DA00007F003F818041C0804170807E1D003C033
:104DB000E00023B0003C08002008000010000000C4
:104DC0000000000100003100003200001C00000063
:104DD00000000000000000000000000000000000D3
:104DE00000000000000000000000000000000000C3
:104DF000000000007F0001FFC00780F00C001810C9
:104E0000000420000200000000000020000210004A
:104E1000040C00180780F001FFC0007F00000000B4
:104E20000000000000000000000000000000000082
:104E30004200006600006600003C0000180003FF0E
:104E4000C0001800003C0000660000660000420040
:104E50000000000008000008000008000008000032
:104E6000080001FFC000080000080000080000085A
:104E700000000800000000000001000031000032C6
:104E800000001C0000000000000000000000000006
:104E90000000000000000000000000000800000802
:104EA00000000800000800000800000800000800DA
:104EB00000080000080000080000000000000000DA
:104EC000000000003800003800003800000000003A
:104ED00000000000000000000000000000000000D2
:104EE00000000000000600001C00007000018000AF
:104EF0000E0000380000C0000700001C0000300059
:104F000000000000000000007F8001FFE0038070CF
:104F10000600180400080400080600180380700149
:104F2000FFE0007F800000000000000000000100A2
:104F30000801000801000803FFF807FFF800000857
:104F40000000080000080000000000000000000150
:104F5000C03802C058040098040118040218040460
:104F600018061C1803F81801E0F800000000000003
:104F700000000001C0E003C0F004000804080804B9
:104F8000080806180803F41801E7F00001E0000023
:104F900000000000000000000300000D00001100F0
:104FA00000610000810803010807FFF80FFFF80007
:104FB00001080001080000000000000000E007FCFC
:104FC000D00608080610080610080610080618384B
:104FD000060FF00607C000000000000000000000FF
:104FE0003F8001FFE0038430020818041008041019
:104FF00008041008071810030FF00007C000000095
:1050000000000000000003C00007000006000006CA
:1050100000F80607F806180006E000070000060082
:105020000000000000000001E1E003F7F00634108A
:10503000041808041808040C08040C0806161803C1
:10504000F3F001C1E000000000000000F80003FCE4
:10505000300306380402080402080402080404109D
:105060000308F001FFC0007F000000000000000006
:105070000000000000000000000000007038007018
:105080003800703800000000000000000000000040
:105090000000000000000000000000000000000010
:1050A000301A00301C00000000000000000000006A
:1050B00000000000000000000000000800001400D4
:1050C0000022000041000080800100400200200416
:1050D000001008000800000000000000210000216E
:1050E000000021000021000021000021000021001B
:1050F000002100002100002100000000000000004D
:105100000000080008040010020020010040008098
:105110008000410000220000140000080000000090
:1051200000000003C00004C00004000008003808AC
:105130000F380808380810000C300007E00003C0E2
:1051400000000000000000003F8000FFE0038070CE
:10515000020F1006708804C088048308047F880248
:10516000C09003012000FE4000000800001800016C
:10517000F8003E0801C20007020007E20000FE003E
:10518000001FC80001F800003800000804000807EC
:10519000FFF807FFF80408080408080408080408D2
:1051A0000806180803F41801E7F00001E000000009
:1051B000000000003F8001FFE0038070020018043F
:1051C00000080400080400080400100600200780FE
:1051D000C000000004000807FFF807FFF8040008FB
:1051E0000400080400080400180200100380700185
:1051F000FFE0007F8000000004000807FFF807FFC1
:10520000F8040808040808040808040808043E080C
:1052100004000806001801006000000004000807F0
:10522000FFF807FFF8040808040800040800040851
:1052300000043E000600000600000180000000009F
:10524000000000003F8001FFE003807006001804AA
:1052500000080402080402080203F00783F00002B9
:105260000000020004000807FFF807FFF804080820
:1052700000080000080000080000080004080807F3
:10528000FFF807FFF8040008000000000000040019
:105290000804000804000807FFF807FFF8040008E6
:1052A00004000804000800000000000000000000E6
:1052B00000060000070000010400010400010400D2
:1052C0000307FFFE07FFFC040000040000040000C9
:1052D00004000807FFF807FFF8040C080018000096
:1052E0003E0004C7800503C80600F8040038040027
:1052F0001800000804000807FFF807FFF80400087A
:105300000000080000080000080000080000080075
:10531000001800006000000004000807FFF8078084
:105320000807FC00007FC00003F80007C0007800F9
:1053300007800807FFF807FFF804000804000807C3
:10534000FFF807000803C00000E000003800001E5E
:10535000000007000001C00400F007FFF80400008F
:10536000000000007F8001FFE00380700600180449
:10537000000804000806001803003001FFE0007F69
:105380008000000004000807FFF807FFF804040885
:10539000040400040400040400040400060C0003D8
:1053A000F80001F000000000000000007F8001FF15
:1053B000E00380700600880400880400C806003CF2
:1053C00003003E01FFE6007F8400000004000807A0
:1053D000FFF807FFF8040808040800040C00040F95
:1053E00000040BC00610F003F03801E008000008CC
:1053F00000000001E0F803F0300630100418080443
:105400001808040C08040C080206180207F00781AB
:10541000E00000000180000600000400000400001D
:1054200004000807FFF807FFF80400080400000460
:10543000000006000001800004000007FFE007FFF5
:10544000F004001800000800000800000800000830
:1054500000000804001007FFE0040000040000063C
:10546000000007E00007FE00041FE00001F8000054
:10547000380001E0043E0007C00006000004000000
:1054800004000007E00007FFC0041FF80007C00782
:10549000F80007FF80043FF80007C004F800070089
:1054A0000004000000000004000806001807C0788F
:1054B00005F1C8003E00001F800463E80780F8067D
:1054C0000018040008000000040000060000078027
:1054D0000007E008047C08001FF80007F80018081F
:1054E00004E00807000006000004000000000001BE
:1054F00000080600380400F80403E8040F08047CE0
:105500000805F00807C00807001804006000000044
:105510000000000000000000000000000000003F4C
:10552000FFFE2000022000022000022000022000D6
:10553000020000000000000000000800000700005A
:1055400000C0000038000006000001C0000030006C
:10555000000E00000100000000000000000020001C
:10556000022000022000022000022000023FFFFE75
:10557000000000000000000000000000000000002B
:1055800000000000000800001000003000002000B3
:1055900000300000100000080000000000000000C3
:1055A00000000100000100000100000100000100F6
:1055B00000010000010000010000010000010000E6
:1055C00001000001000000000000000000200000B9
:1055D000200000100000100000000000000000008B
:1055E00000000000000000000000000000F00019B2
:1055F000F8001B18002208002608002408002410C8
:10560000003FF8001FF80000080000180000000428
:10561000000007FFF80FFFF0001818001008002026
:1056200008002008003018001FF0000FC000000024
:105630000000000007C0001FF00018300020080024
:105640002008002008003C08001C1000006000003A
:10565000000000000000000007C0001FF000381824
:1056600000200800200800200804101007FFF80F91
:10567000FFF0000010000000000000000000000724
:10568000C0001FF00012300022180022080022087B
:10569000003208001E10000E200000000000000074
:1056A000200000200800200801FFF803FFF8062072
:1056B0000804200804200807200003000000000060
:1056C00000000000000E000E6E001FF30031B1005C
:1056D00020B10020B1003191001F13002E1E0020C8
:1056E0000E00300000000004000807FFF80FFFF86C
:1056F000001008002000002000002008003FF800F3
:105700001FF800000800000000000000000000205A
:1057100008002008002008063FF8063FF8000008AF
:105720000000080000080000000000000000000069
:105730000000000003000003002001002001002001
:1057400003063FFE063FFC000000000000000000D2
:1057500000000004000807FFF80FFFF800018800B0
:105760000300002FC00038F8002038002008000097
:105770000800000000000000000004000804000809
:1057800004000807FFF80FFFF800000800000800F9
:105790000008000000000000002008003FF8003F63
:1057A000F8001008002000003FF8003FF800100843
:1057B000002000003FF8003FF80000080000000053
:1057C0002008003FF8003FF80010080010000020FB
:1057D00000002008003FF8001FF80000080000004B
:1057E0000000000007C0000FF00018300030080073
:1057F0002008002008003008001830000FF00007D3
:10580000C0000000000000002001003FFF003FFF3B
:105810000010110020090020080020080030380086
:105820001FF0000FC00000000000000007C0001FB4
:10583000F00038180020080020080020090010118E
:10584000001FFF003FFF00000100000000200800D3
:105850002008002008003FF8003FF800080800106A
:105860000800200800200000300000300000000088
:10587000000000000000000C78001E180033080033
:1058800023080021080021880021980030F000380A
:105890006000000000000000200000200000200048
:1058A00000FFF003FFF80020080020080020080097
:1058B0000030000000000000000000002000003F59
:1058C000F0007FF800001800000800000800201019
:1058D000003FF8007FF00000100000000000000012
:1058E0002000003000003C00003F800023F000005A
:1058F00078000070002380003C0000300000200091
:10590000002000003C00003FE00023F80000E00021
:105910002700003E00003FE00021F80001E0003ECB
:105920000000200000000000200800200800383897
:10593000003E680027800003C8002CF800383800BB
:1059400020180020080000000000000020000030A7
:1059500003003C01003F830023EC00007000238023
:10596000003C0000200000200000000000000000BB
:1059700000000038080020380020F80023E8002F3D
:1059800088003E0800380800201800007000000061
:105990000000000000000000000000000000000007
:1059A00008000014001FF7FC300006200002000071
:1059B00000000000000000000000000000000000E7
:1059C000000000000000FFFFFF00000000000000DA
:1059D00000000000000000000000000000002000A7
:1059E000023000061FF7FC00140000080000000051
:1059F000000000000000000000000000000000188F
:105A00000000600000400000400000200000100086
:105A1000000800000400000400000C00001000005A
:105A20000000000000000000000000000000000076
:105A30000000000000000000000000000000000066
:105A40000000000000000000000000000000000056
:105A50000000000000000000000000000000000046
:105A60000000000000000000000000000000000036
:105A7000000000000000000007F000C007FFE1E0A8
:105A800007F001E0000000C000000000000000007E
:105A90000000000000000000000000000000000006
:105AA00000000000000000000020000001C0000015
:105AB000078000001F0000001E0000001C200000E6
:105AC00001C00000078000001F0000001E00000051
:105AD0001C000000000000000000000000000000AA
